:0400000062EF00F0BB
:100008004682FACF10F0FBCF11F0D9CF12F0DACF39
:1000180013F0F3CF14F0F4CF15F0F6CF16F0F7CFB6
:1000280017F0F8CF18F0F5CF19F0F2AC1EEF00F08A
:1000380020EF00F04CEF00F0A0A625EF00F027EF2E
:1000480000F03CEF00F0A1A62CEF00F02EEF00F03E
:100058003CEF00F002D83AEF00F00500FA6E385095
:10006800FD6E3950FE6EFF6AFA5012004CEF00F038
:100078009DA641EF00F043EF00F04CEF00F09EA684
:1000880048EF00F04AEF00F04CEF00F02EEF00F0E0
:1000980019C0F5FF18C0F8FF17C0F7FF16C0F6FF24
:1000A80015C0F4FF14C0F3FF13C0DAFF12C0D9FF64
:1000B80011C0FBFF10C0FAFF4692110070EF0EF05E
:1010000000501F1A1F0A1F6E13E814441F4A17C608
:101010001FBE1FB61FAE1FA61F9E1F961F381F6A3A
:101020001A74696D65203A2025783A25783A257832
:10103000200D44617465203A2025783A25783A25B8
:0310400078000035
:101044007CC0D9FF7DC0DAFFDECFF6FFDDCFF7FF2E
:10105400F86A0800F550250AD8A433EF08F035EFF4
:1010640008F0ACEF08F07CC0D9FF7DC0DAFFDE2ABF
:10107400000EDD22000E356E000E346E34C0D8F042
:10108400366837687CC0D9FF7DC0DAFFDECF84F0D4
:10109400DDCF85F084C0F6FF85C0F7FFF86A08004D
:1010A400F550780AD8A459EF08F05BEF08F0A3EFE5
:1010B40008F07EC0D9FF7FC0DAFFDFCF2BF0020E2D
:1010C400DE26DFCF2CF0000EDD222BC0D9FF2CC092
:1010D400DAFFDECF80F0DDCF81F0010E0001842540
:1010E4002B6E000E85212C6E7CC0D9FF7DC0DAFFEB
:1010F4002BC0DEFF2CC0DDFF8CEF08F07AC06AF055
:101104007BC06BF080C06CF081C06DF0C2EC08F065
:10111400C1EF08F084C0F6FF85C0F7FFF86A080045
:10112400F5502B6E2C6A2C50000AD8B49CEF08F0B2
:10113400A3EF08F02B50780AD8B480EF08F0A3EF9F
:1011440008F07CC0D9FF7DC0DAFFDE2A000EDD2264
:10115400C1EF08F07CC0D9FF7DC0DAFFDECFF6FF17
:10116400DDCFF7FFF86A0800F5501A6E1B6A7AC0E3
:101174001CF07BC01DF052EC09F0A3EF08F0120044
:1011840037BEC9EF08F0C7EF08F0D0EF08F0000E43
:101194000001766F010E756FD4EF08F036C075F05C
:1011A40037C076F034C071F035C072F0000E000123
:1011B400786F1F0E776F000EF86F1DEF09F0770739
:1011C400D8A078076C510F0B796F090E7965EDEF94
:1011D40008F0EFEF08F0F7EF08F0570E7925736F7A
:1011E400746B000E7423FDEF08F0300E7925736FD5
:1011F400746B000E742373C079F0D90E7725D96E01
:10120400000E7821DA6E79C0DFFF7507D8A0760763
:101214007107D8A072076CC06EF06DC06FF0040E39
:10122400706FD8906F336E33702F13EF09F06EC068
:101234006CF06FC06DF078BF29EF09F0785109E1C7
:10124400020E775DD8A029EF09F02BEF09F041EFEA
:1012540009F06C516D11D8A432EF09F034EF09F0A4
:10126400E1EF08F076BF41EF09F0765106E175052C
:10127400D8B03FEF09F041EF09F0E1EF08F06AC0A0
:1012840060F06BC061F0D90E7725626F000E782193
:10129400636F71C064F072C065F066EC0BF012000D
:1012A4001C501D10D8B459EF09F05BEF09F064EF3E
:1012B40009F01C501D10D8A462EF09F064EF09F086
:1012C40069EF09F01A5010EC10F0B6EF09F020EEB7
:1012D4000AF01C50D9261D50DA22DE50DE10D8B494
:1012E40076EF09F078EF09F093EF09F020EE0AF0B9
:1012F4001C50D9261D50DA2210EE03F01C50E126B2
:101304001D50E222DE50E65CE650800A226EDE507A
:10131400800A2258D8B091EF09F093EF09F0B6EFA4
:1013240009F020EE03F01C50D9261D50DA22DECF3E
:101334001EF0DDCF1FF01CC0D9FF1DC0DAFFDECFC9
:1013440020F0DDCF21F01E502024D96E1F50212023
:10135400DA6E1AC0DFFF20EE03F01C50D9261D50B0
:10136400DA22DE2A000EDD2212007BEC0FF00009E7
:10137400D8B4BFEF09F0C1EF09F0FCEF09F0CFEFEB
:1013840009F0E3EC0FF018EF0AF0DFEC0FF018EFC0
:101394000AF0D7EC0FF018EF0AF0C6C00AF0C7C085
:1013A4000BF002D8E0EF09F00500FA6E0001BA5123
:1013B400FD6EBB51FE6EFF6AFA5012000C6E0D6A90
:1013C4000D50000AD8B4E9EF09F0CBEF09F00C5046
:1013D400010AD8B4CBEF09F0030AD8B4C3EF09F07B
:1013E400010AD8B4C7EF09F0070AD8B4CBEF09F063
:1013F400CBEF09F00001D791D1C0D9FFD2C0DAFFF9
:10140400D14BD22BDF50E7EC0FF00001D307D8A06B
:10141400D407D351D411D8A412EF0AF014EF0AF070
:1014240017EF0AF0060E18EF0AF0030E120000017F
:10143400AC51AD11D8B421EF0AF023EF0AF073EFE9
:101444000AF0000E8E6F010E8F6F210E906F100E3A
:10145400916FACC0D9FFADC0DAFFDF50AE6FAE51B3
:10146400926F936B20EE01F0AC51D926AD51DA2284
:10147400DF50AF6FAF51946F956B20EE02F0AC511B
:10148400D926AD51DA22DF50B06FB051966F976B09
:1014940020EE06F0AC51D926AD51DA22DF50B16FFF
:1014A400B151986F996B20EE04F0AC51D926AD512F
:1014B400DA22DF50B26FB2519A6F9B6B20EE05F0C7
:1014C400AC51D926AD51DA22DF50B36FB3519C6FC2
:1014D4009D6B92EC0DF0000E1B6E010E1C6E3BEC2E
:1014E4000EF0120004EC10F0D1C0D9FFD2C0DAFF24
:1014F400DF6E0001D14BD22BD307D8A0D407D35130
:10150400D411D8B488EF0AF08AEF0AF08FEF0AF00A
:10151400EEEC0FF0050EC6EF0AF0D7879AEF0AF04B
:10152400CBEC0FF0C6EF0AF0CFEC0FF0C6EF0AF0E9
:10153400C0C00AF0C1C00BF002D8AAEF0AF005003F
:10154400FA6EB451FD6EB551FE6EFF6AFA50120088
:101554000C6E0D6A0D50000AD8B4B3EF0AF096EF82
:101564000AF00C50010AD8B496EF0AF0030AD8B472
:1015740092EF0AF0010AD8B492EF0AF0070AD8B43D
:1015840096EF0AF096EF0AF012000001606F20EE69
:101594002DF010EE61F0060EDBCFE3FFE806FCE26F
:1015A400000E236E0001605159EC0CF00001616FD4
:1015B400619F010E236E605159EC0CF00001626FC3
:1015C400629F020E236E605159EC0CF00001636FB0
:1015D400639F030E236E605159EC0CF00001646F9D
:1015E400070E6417040E236E605159EC0CF00001D1
:1015F400676F3F0E6717050E236E605159EC0CF0B0
:101604000001656F1F0E6517060E236E605159ECBD
:101614000CF00001666F20EE61F000EE26F0060E7D
:10162400DBCFEBFFE806FCE212001C6E010E1D6E20
:101634000001D7B520EF0BF022EF0BF064EF0BF0B5
:101644001CC0D0F0D793D785D7910E0ED56F010E5D
:10165400CF6FF40ECE6FD787140EB46F200EB56F14
:10166400000EC06F000EC16F140EB66F200EB76F60
:10167400000EC26F000EC36F140EB86F200EB96F48
:10168400000EC46F000EC56F140EBA6F200EBB6F30
:10169400000EC66F000EC76F100EBC6F200EBD6F1C
:1016A400000EC86F000EC96FD60E1A6E1F0E1B6E89
:1016B400AEEC0FF0FCEC0FF019EC0FF0F4EC0FF0C3
:1016C400000E1D6E1D501200000165BF6CEF0BF083
:1016D4006EEF0BF074EF0BF064C068F065C069F056
:1016E40078EF0BF0000E696F000E686F000E676FE5
:1016F400000E666F8BEF0BF0000E1B6E200E1A6E41
:1017040060C01CF061C01DF052EC09F00001664B92
:10171400672B6851665D6751800A2A6E6951800A99
:101724002A58D8A098EF0BF09AEF0BF07EEF0BF04D
:1017340062C023F063C024F060C025F061C026F0CD
:10174400BAEC0DF012000001D787B6EF0BF0DBEC1A
:101754000FF0E2EF0BF002EC10F0030EE2EF0BF0EF
:10176400D7EC0FF0E2EF0BF0C0C00AF0C1C00BF0F1
:1017740002D8C6EF0BF00500FA6EB451FD6EB551F8
:10178400FE6EFF6AFA5012000C6E0D6A0D50000ACC
:10179400D8B4CFEF0BF0B2EF0BF00C50010AD8B471
:1017A400B2EF0BF0030AD8B4A9EF0BF0010AD8B4D6
:1017B400A9EF0BF0070AD8B4ADEF0BF0B2EF0BF0C2
:1017C40012001E6E1A501B10D8B4EBEF0BF0EDEFA5
:1017D4000BF007EF0CF01E50020DB40EF324D96E7B
:1017E400000EF420DA6E1AC0DEFF1BC0DDFF1E50AF
:1017F400020DC00EF324D96E000EF420DA6E1CC064
:10180400DEFF1DC0DDFF1DEF0CF01E50020DB40EF7
:10181400F324D96E000EF420DA6E140EDE6E200E60
:10182400DD6E1E50020DC00EF324D96E000EF4209E
:10183400DA6EDE6ADD6A1200056E01500210D8B459
:1018440026EF0CF028EF0CF042EF0CF00550020DDF
:10185400B40EF324D96E000EF420DA6E01C0DEFF5C
:1018640002C0DDFF0550020DC00EF324D96E000E38
:10187400F420DA6E03C0DEFF04C0DDFF58EF0CF085
:101884000550020DB40EF324D96E000EF420DA6E66
:10189400140EDE6E200EDD6E0550020DC00EF32414
:1018A400D96E000EF420DA6EDE6ADD6A1200246E50
:1018B400000E256E245017EC0BF00009D8B465EF28
:1018C4000CF067EF0CF05CEF0CF0920E1F6E1D0E27
:1018D400206E250E216E000E226E37EC0FF0230EC3
:1018E4001A6E000E1B6E000E1D6E010E1C6EF5ECC2
:1018F4000EF0000E1F6E000E206E000E216E000E04
:10190400226E43EC0FF0C7EC0FF087EC0EF0E80604
:10191400D8B48FEF0CF091EF0CF087EF0CF025505A
:10192400120000EC10F00001D7A19BEF0CF09DEF2A
:101934000CF0AAEF0CF07BEC0FF00009D8B4A5EF83
:101944000CF0A7EF0CF0AAEF0CF00F0E0001D56F0E
:101954000001D551020D010EF324F66E100EF42091
:10196400F76EF86A000EF8220900F5CF0EF00900B0
:10197400F5CF0FF002D8C8EF0CF00500FA6E0E5048
:10198400FD6E0F50FE6EFF6AFA5012000001D56F13
:101994001200256E255017EC0BF00009D8B4D5EFD2
:1019A4000CF0D7EF0CF0CCEF0CF03A0E1F6E1D0EBE
:1019B400206E240E216E000E226E37EC0FF0230EE3
:1019C4001A6E000E1B6E000E1D6E010E1C6EF5ECE1
:1019D4000EF0000E1F6E000E206E000E216E000E23
:1019E400226E43EC0FF0C7EC0FF087EC0EF0E80624
:1019F400D8B4FFEF0CF001EF0DF0F7EF0CF012008C
:101A040066EC0FF0F28EF28C080E266E050E276E31
:101A1400510E2AEC0FF0080E266E060E276E530E9A
:101A24002AEC0FF0080E266E510E95EC0FF03B6E6B
:101A3400080E266E530E95EC0FF03A6E680EC7EC46
:101A44000AF020EE3DF0060EEBCFDBFFE806FCE2E9
:101A54003D0E0001AC6F000EAD6F19EC0AF020EFE3
:101A64000DF062EF00F00001D791020ED66F43EF44
:101A74000DF0DBEC0FF067EF0DF0D7EC0FF067EF34
:101A84000DF0C4C00AF0C5C00BF002D853EF0DF03E
:101A94000500FA6EB851FD6EB951FE6EFF6AFA5038
:101AA40012000C6E0D6A0D50000AD8B45CEF0DF0F4
:101AB4003FEF0DF00C50020AD8B43BEF0DF0010AD1
:101AC400D8B43BEF0DF03FEF0DF0120088C08CF05E
:101AD40089C08DF07DEF0DF086C07AF087C07BF071
:101AE4008C0E00017C6F000E7D6F8AC07EF08BC06F
:101AF4007FF022EC08F08CC0F6FF8DC0F7FFF86A87
:101B04000800F5500009D8A48AEF0DF08CEF0DF011
:101B14006EEF0DF0000E0001876F000E866F12004D
:101B2400920E00019E6F000E9F6F8EC0A0F08FC0BA
:101B3400A1F0000EA46F000EA36F000EAB6F000E99
:101B4400AA6FA00E866F000E876F90C088F091C0B8
:101B540089F09E0E8A6F000E8B6F68EC0DF0000109
:101B6400A3518E25D96EA4518F21DA6EDF6A12003B
:101B7400000E296E000E286ECBEF0DF027C01AF070
:101B84001B6A25C01CF026C01DF052EC09F0284A3F
:101B9400292A28502324D96E29502420DA6EDF50B4
:101BA400276E2750D8A4D9EF0DF0DBEF0DF0C0EF6E
:101BB4000DF012001A6E010E1B6E0001D7B3E5EF93
:101BC4000DF0E7EF0DF0FAEF0DF0D783000E1B6E6A
:101BD4001A50D8B4F0EF0DF0F2EF0DF0F6EF0DF06F
:101BE400010ED56FF8EF0DF0020ED56FF6EC0FF085
:101BF4001B50120020EE02F00A50D9260B50DA22B4
:101C0400DECF01F0DDCF02F00AC0D9FF0BC0DAFF4E
:101C1400DECF03F0DDCF04F007EC0FF0000E066E0C
:101C2400000E076E000E086E000E096E4FEC0FF0EA
:101C3400020E1200080EB86E900EAB6E240EAC6E3F
:101C4400A00EAF6E010EB06E000E1A6E000E1B6E6B
:101C5400BDEC0FF0000E1A6E000E1B6EB8EC0FF008
:101C6400000E1A6E000E1B6EC2EC0FF0000E3C6EDE
:101C74001200000E1D6E49EF0EF01D501B24D96E8C
:101C8400000E1C20DA6EDF505BEC0FF01D2A1D5095
:101C94001B24D96E000E1C20DA6EDF50D8A455EF39
:101CA4000EF057EF0EF03FEF0EF01200000E8D6EA7
:101CB400000E8C6E000E896E000E8A6E000E8B6E06
:101CC400070E966E92689368BF0E946E95687E6850
:101CD4001F0E7F6E000E7C6EF18E120001EE00F07E
:101CE400320EEE6AE806FDE100EEB4F0450EEE6A4F
:101CF400E806FDE100EE2DF0170EEE6AE806FDE1C0
:101D040046904692000102EF0DF0010E1A6E00019A
:101D1400D7B38FEF0EF091EF0EF09BEF0EF0D79547
:101D2400D069FCEC0FF0F8EC0FF0FAEC0FF0D6C031
:101D34001AF01A5012000AC001F00BC002F0000E93
:101D4400046E010E036E07EC0FF0000E066E000E1B
:101D5400076E000E086E000E096E4FEC0FF0040EB5
:101D640012000AC001F00BC002F0000E046E020E55
:101D7400036E07EC0FF0000E066E000E076E000EE9
:101D8400086E000E096E4FEC0FF0020E12000AC02E
:101D940001F00BC002F0000E046E010E036E07EC9E
:101DA4000FF0000E066E000E076E000E086E000E99
:101DB400096E4FEC0FF0020E12000AC001F00BC0C6
:101DC40002F0000E046E020E036E07EC0FF0000E1C
:101DD400066E000E076E000E086E000E096E4FECC4
:101DE4000FF0040E12000001D7A7FBEF0EF0FDEF79
:101DF4000EF006EF0FF01AC0D1F01BC0D2F01CC0D9
:101E0400D3F01DC0D4F0D79712000001D7A70DEF6F
:101E14000FF00FEF0FF018EF0FF001C0D1F002C078
:101E2400D2F003C0D3F004C0D4F0D7971200C6BADE
:101E34001EEF0FF020EF0FF029EF0FF0800EC76EAA
:101E4400080EC66E000EC56E270EC86EC68A120036
:101E5400286E26C023F027C024F02850CBEC0CF0C9
:101E6400850EE82EFED700F012001FC01AF020C025
:101E74001BF021C01CF022C01DF0000EE3EC0BF09F
:101E840012001FC01AF020C01BF021C01CF022C099
:101E94001DF0020EE3EC0BF0120006C001F007C0C7
:101EA40002F008C003F009C004F0000E1EEC0CF0B0
:101EB40012001A6E9EA861EF0FF063EF0FF05CEF53
:101EC4000FF01AC0ADFF1200FEEC0FF071EC0FF032
:101ED40058EC0EF0B3EC0FF01CEC0EF01200800E78
:101EE400C76E080EC66E000EC56E270EC86EC69A63
:101EF4001200C5BC80EF0FF083EF0FF0010E84EFEA
:101F04000FF0000E12000001D781D051D025E7EC6C
:101F14000FF0030E12000001D781D880D035E7EC12
:101F24000FF0050E1200276E26C023F0275059EC3F
:101F34000CF012000001D793000ED66F0E0E1200A3
:101F44000001D79106EC10F0040E12000001D793A3
:101F5400000ED66F0E0E12001AC038F01BC039F0F6
:101F64001200300ED36E000E9B6E12001AC0FBF0EE
:101F74001BC0FCF012001AC044F01BC045F0120054
:101F84001AC0F9F01BC0FAF01200000EDCEC0DF0E0
:101F94001200F1EC0FF0090E1200F1EC0FF00A0E32
:101FA4001200EEEC0FF0050E12000CEC10F0000E17
:101FB40012000EEC10F0010E12000EEC10F0020EE6
:101FC40012000EEC10F0010E1200016E01C0C9FFE8
:101FD400120093EC0CF01200C59AC5881200C58A51
:101FE400C58812009D861200C58012009D961200BD
:101FF400C69A12009E961200D09E12009E9612005F
:102004009E861200C9501200C5861200050E1200E9
:0E201400010E1200C5841200C58212001200D7
:020000040020DA
:08000000FFFFFFFFFFFFFFFF00
:020000040030CA
:0E000000FF021F1EFF8B85FF0FC00FE00F4099
:00000001FF
