:0400000062EF00F0BB
:100008004582FACF10F0FBCF11F0D9CF12F0DACF3A
:1000180013F0F3CF14F0F4CF15F0F6CF16F0F7CFB6
:1000280017F0F8CF18F0F5CF19F0F2AC1EEF00F08A
:1000380020EF00F04CEF00F0A0A625EF00F027EF2E
:1000480000F03CEF00F0A1A62CEF00F02EEF00F03E
:100058003CEF00F002D83AEF00F00500FA6E365097
:10006800FD6E3750FE6EFF6AFA5012004CEF00F03A
:100078009DA641EF00F043EF00F04CEF00F09EA684
:1000880048EF00F04AEF00F04CEF00F02EEF00F0E0
:1000980019C0F5FF18C0F8FF17C0F7FF16C0F6FF24
:1000A80015C0F4FF14C0F3FF13C0DAFF12C0D9FF64
:1000B80011C0FBFF10C0FAFF459211008BEF0EF044
:1010000000941F501F401F6E13E814881FE6170A34
:10101000200220FA1FF21FEA1FE21FDA1F7C1FA026
:101020001A74696D65203A2025783A25783A257832
:10103000200D44617465203A2025783A25783A25B8
:0310400078000035
:101044007CC0D9FF7DC0DAFFDECFF6FFDDCFF7FF2E
:10105400F86A0800F550250AD8A433EF08F035EFF4
:1010640008F0ACEF08F07CC0D9FF7DC0DAFFDE2ABF
:10107400000EDD22000E336E000E326E32C0DAF046
:10108400346835687CC0D9FF7DC0DAFFDECF86F0D6
:10109400DDCF87F086C0F6FF87C0F7FFF86A080047
:1010A400F550780AD8A459EF08F05BEF08F0A3EFE5
:1010B40008F07EC0D9FF7FC0DAFFDFCF80F0020ED8
:1010C400DE26DFCF81F0000EDD2280C0D9FF81C093
:1010D400DAFFDECF82F0DDCF83F0010E000186253A
:1010E400806F000E8721816F7CC0D9FF7DC0DAFF3D
:1010F40080C0DEFF81C0DDFF8CEF08F07AC06AF0AB
:101104007BC06BF082C06CF083C06DF0C2EC08F061
:10111400C1EF08F086C0F6FF87C0F7FFF86A080041
:10112400F550806F816B8151000AD8B49CEF08F0B0
:10113400A3EF08F08051780AD8B480EF08F0A3EF49
:1011440008F07CC0D9FF7DC0DAFFDE2A000EDD2264
:10115400C1EF08F07CC0D9FF7DC0DAFFDECFF6FF17
:10116400DDCFF7FFF86A0800F5501A6E1B6A7AC0E3
:101174001CF07BC01DF052EC09F0A3EF08F0120044
:1011840035BEC9EF08F0C7EF08F0D0EF08F0000E45
:101194000001766F010E756FD4EF08F034C075F05E
:1011A40035C076F032C071F033C072F0000E000129
:1011B400786F1F0E776F000EFA6F1DEF09F0770737
:1011C400D8A078076C510F0B796F090E7965EDEF94
:1011D40008F0EFEF08F0F7EF08F0570E7925736F7A
:1011E400746B000E7423FDEF08F0300E7925736FD5
:1011F400746B000E742373C079F0DB0E7725D96EFF
:10120400000E7821DA6E79C0DFFF7507D8A0760763
:101214007107D8A072076CC06EF06DC06FF0040E39
:10122400706FD8906F336E33702F13EF09F06EC068
:101234006CF06FC06DF078BF29EF09F0785109E1C7
:10124400020E775DD8A029EF09F02BEF09F041EFEA
:1012540009F06C516D11D8A432EF09F034EF09F0A4
:10126400E1EF08F076BF41EF09F0765106E175052C
:10127400D8B03FEF09F041EF09F0E1EF08F06AC0A0
:1012840060F06BC061F0DB0E7725626F000E782191
:10129400636F71C064F072C065F0B4EC0BF01200BF
:1012A4001C501D10D8B459EF09F05BEF09F064EF3E
:1012B40009F01C501D10D8A462EF09F064EF09F086
:1012C40069EF09F01A5032EC10F0B6EF09F020EE95
:1012D4000AF01C50D9261D50DA22DE50DE10D8B494
:1012E40076EF09F078EF09F093EF09F020EE0AF0B9
:1012F4001C50D9261D50DA2210EE03F01C50E126B2
:101304001D50E222DE50E65CE650800A226EDE507A
:10131400800A2258D8B091EF09F093EF09F0B6EFA4
:1013240009F020EE03F01C50D9261D50DA22DECF3E
:101334001EF0DDCF1FF01CC0D9FF1DC0DAFFDECFC9
:1013440020F0DDCF21F01E502024D96E1F50212023
:10135400DA6E1AC0DFFF20EE03F01C50D9261D50B0
:10136400DA22DE2A000EDD22120096EC0FF00009CC
:10137400D8B4BFEF09F0C1EF09F0FCEF09F0CFEFEB
:1013840009F005EC10F018EF0AF001EC10F018EF7A
:101394000AF0F9EC0FF018EF0AF0C8C00AF0C9C05F
:1013A4000BF002D8E0EF09F00500FA6E0001BC5121
:1013B400FD6EBD51FE6EFF6AFA5012000C6E0D6A8E
:1013C4000D50000AD8B4E9EF09F0CBEF09F00C5046
:1013D400010AD8B4CBEF09F0030AD8B4C3EF09F07B
:1013E400010AD8B4C7EF09F0070AD8B4CBEF09F063
:1013F400CBEF09F00001D991D3C0D9FFD4C0DAFFF3
:10140400D34BD42BDF5009EC10F00001D507D8A042
:10141400D607D551D611D8A412EF0AF014EF0AF06A
:1014240017EF0AF0060E18EF0AF0030E120000017F
:10143400AE51AF11D8B421EF0AF023EF0AF073EFE5
:101444000AF0000E906F010E916F210E926F100E34
:10145400936FAEC0D9FFAFC0DAFFDF50B06FB051A9
:10146400946F956B20EE01F0AE51D926AF51DA227C
:10147400DF50B16FB151966F976B20EE02F0AE5111
:10148400D926AF51DA22DF50B26FB251986F996BFF
:1014940020EE06F0AE51D926AF51DA22DF50B36FF9
:1014A400B3519A6F9B6B20EE04F0AE51D926AF5125
:1014B400DA22DF50B46FB4519C6F9D6B20EE05F0BF
:1014C400AE51D926AF51DA22DF50B56FB5519E6FB8
:1014D4009F6BADEC0DF0000E1B6E010E1C6E56ECF6
:1014E4000EF0120026EC10F0D3C0D9FFD4C0DAFFFE
:1014F400DF6E0001D34BD42BD507D8A0D607D55126
:10150400D611D8B488EF0AF08AEF0AF08FEF0AF008
:1015140010EC10F0050EC6EF0AF0D9879AEF0AF026
:10152400EDEC0FF0C6EF0AF0F1EC0FF0C6EF0AF0A5
:10153400C2C00AF0C3C00BF002D8AAEF0AF005003B
:10154400FA6EB651FD6EB751FE6EFF6AFA50120084
:101554000C6E0D6A0D50000AD8B4B3EF0AF096EF82
:101564000AF00C50010AD8B496EF0AF0030AD8B472
:1015740092EF0AF0010AD8B492EF0AF0070AD8B43D
:1015840096EF0AF096EF0AF012000001676F20EE62
:101594002BF010EE68F0060EDBCFE3FFE806FCE26A
:1015A400000E236E00016751A7EC0CF00001686F78
:1015B400689F010E236E6751A7EC0CF00001696F60
:1015C400699F020E236E6751A7EC0CF000016A6F4D
:1015D4006A9F030E236E6751A7EC0CF000016B6F3A
:1015E400070E6B17040E236E6751A7EC0CF0000175
:1015F4006E6F3F0E6E17050E236E6751A7EC0CF04D
:1016040000016C6F1F0E6C17060E236E6751A7EC5A
:101614000CF000016D6F20EE68F000EE60F0060E35
:10162400DBCFEBFFE806FCE212001C6E010E1D6E20
:101634000001D9B520EF0BF022EF0BF064EF0BF0B3
:101644001CC0D2F0D993D985D9910E0ED76F010E53
:10165400D16FF40ED06FD987580EB66F200EB76FC6
:10166400000EC26F000EC36F580EB86F200EB96F14
:10167400000EC46F000EC56F580EBA6F200EBB6FFC
:10168400000EC66F000EC76F580EBC6F200EBD6FE4
:10169400000EC86F000EC96F540EBE6F200EBF6FD0
:1016A400000ECA6F000ECB6F1A0E1A6E200E1B6E40
:1016B400D0EC0FF01EEC10F034EC0FF016EC10F040
:1016C400000E1D6E1D50120081EC0FF0F28EF28C94
:1016D400080E266E050E276E510E45EC0FF0080E0F
:1016E400266E060E276E530E45EC0FF0080E266E7E
:1016F400510EB0EC0FF03A6E080E266E530EB0EC9D
:101704000FF0396E000E266E4F0EB7EC0FF0386EE8
:10171400000E236E38C024F0280E19EC0DF0680E6C
:10172400C7EC0AF020EE3CF0060EEBCFDBFFE80638
:10173400FCE23C0E0001AE6F000EAF6F19EC0AF034
:101744000B0E0101336F260E326F5D0EE82EFED7AD
:10175400322FFCD7332FFAD700F000F084EF0BF0D0
:1017640062EF00F0000165BFBAEF0BF0BCEF0BF0C5
:10177400C2EF0BF064C068F065C069F0C6EF0BF00F
:10178400000E696F000E686F000E676F000E666FC3
:10179400D9EF0BF0000E1B6E200E1A6E60C01CF009
:1017A40061C01DF052EC09F00001664B672B6851D3
:1017B400665D6751800A2A6E6951800A2A58D8A04A
:1017C400E6EF0BF0E8EF0BF0CCEF0BF062C023F088
:1017D40063C024F060C025F061C026F0D5EC0DF0A4
:1017E40012000001D98704EF0CF0FDEC0FF030EF8C
:1017F4000CF024EC10F0030E30EF0CF0F9EC0FF0C9
:1018040030EF0CF0C2C00AF0C3C00BF002D814EFE2
:101814000CF00500FA6EB651FD6EB751FE6EFF6A0C
:10182400FA5012000C6E0D6A0D50000AD8B41DEF68
:101834000CF000EF0CF00C50010AD8B400EF0CF0DF
:10184400030AD8B4F7EF0BF0010AD8B4F7EF0BF0A2
:10185400070AD8B4FBEF0BF000EF0CF012001E6E79
:101864001A501B10D8B439EF0CF03BEF0CF055EFC5
:101874000CF01E50020DB60EF324D96E000EF420A7
:10188400DA6E1AC0DEFF1BC0DDFF1E50020DC20E51
:10189400F324D96E000EF420DA6E1CC0DEFF1DC0E6
:1018A400DDFF6BEF0CF01E50020DB60EF324D96E63
:1018B400000EF420DA6E580EDE6E200EDD6E1E5021
:1018C400020DC20EF324D96E000EF420DA6EDE6A25
:1018D400DD6A1200056E01500210D8B474EF0CF0EA
:1018E40076EF0CF090EF0CF00550020DB60EF324D9
:1018F400D96E000EF420DA6E01C0DEFF02C0DDFFF7
:101904000550020DC20EF324D96E000EF420DA6ED7
:1019140003C0DEFF04C0DDFFA6EF0CF00550020D8E
:10192400B60EF324D96E000EF420DA6E580EDE6E75
:10193400200EDD6E0550020DC20EF324D96E000E8A
:10194400F420DA6EDE6ADD6A1200246E000E256E63
:10195400245017EC0BF00009D8B4B3EF0CF0B5EF3A
:101964000CF0AAEF0CF0C80E1F6E1D0E206E250E93
:10197400216E000E226E52EC0FF0230E1A6E000E32
:101984001B6E000E1D6E010E1C6E10EC0FF0000E8F
:101994001F6E000E206E000E216E000E226E5EEC95
:1019A4000FF0E9EC0FF0A2EC0EF0E806D8B4DDEF8E
:1019B4000CF0DFEF0CF0D5EF0CF02550120022EC08
:1019C40010F00001D9A1E9EF0CF0EBEF0CF0F8EF07
:1019D4000CF096EC0FF00009D8B4F3EF0CF0F5EF2F
:1019E4000CF0F8EF0CF00F0E0001D76F0001D75187
:1019F400020D010EF324F66E100EF420F76EF86A51
:101A0400000EF8220900F5CF0EF00900F5CF0FF013
:101A140002D816EF0DF00500FA6E0E50FD6E0F5051
:101A2400FE6EFF6AFA5012000001D76F1200256E95
:101A3400255017EC0BF00009D8B423EF0DF025EF77
:101A44000DF01AEF0DF0700E1F6E1D0E206E240E99
:101A5400216E000E226E52EC0FF0230E1A6E000E51
:101A64001B6E000E1D6E010E1C6E10EC0FF0000EAE
:101A74001F6E000E206E000E216E000E226E5EECB4
:101A84000FF0E9EC0FF0A2EC0EF0E806D8B44DEF3D
:101A94000DF04FEF0DF045EF0DF012000001D9915C
:101AA400020ED86F5EEF0DF0FDEC0FF082EF0DF03B
:101AB400F9EC0FF082EF0DF0C6C00AF0C7C00BF0CE
:101AC40002D86EEF0DF00500FA6EBA51FD6EBB51EF
:101AD400FE6EFF6AFA5012000C6E0D6A0D50000A79
:101AE400D8B477EF0DF05AEF0DF00C50020AD8B4C9
:101AF40056EF0DF0010AD8B456EF0DF05AEF0DF081
:101B040012008AC08EF08BC08FF098EF0DF088C061
:101B14007AF089C07BF08E0E00017C6F000E7D6F21
:101B24008CC07EF08DC07FF022EC08F08EC0F6FFF2
:101B34008FC0F7FFF86A0800F5500009D8A4A5EF94
:101B44000DF0A7EF0DF089EF0DF0000E0001896F85
:101B5400000E886F1200940E0001A06F000EA16F9A
:101B640090C0A2F091C0A3F0000EA66F000EA56F66
:101B7400000EAD6F000EAC6FA20E886F000E896F61
:101B840092C08AF093C08BF0A00E8C6F000E8D6F04
:101B940083EC0DF00001A5519025D96EA651912139
:101BA400DA6EDF6A1200000E296E000E286EE6EF70
:101BB4000DF027C01AF01B6A25C01CF026C01DF0CA
:101BC40052EC09F0284A292A28502324D96E295096
:101BD4002420DA6EDF50276E2750D8A4F4EF0DF0DE
:101BE400F6EF0DF0DBEF0DF012001A6E010E1B6E16
:101BF4000001D9B300EF0EF002EF0EF015EF0EF076
:101C0400D983000E1B6E1A50D8B40BEF0EF00DEFF3
:101C14000EF011EF0EF0010ED76F13EF0EF0020E5F
:101C2400D76F18EC10F01B50120020EE02F00A508F
:101C3400D9260B50DA22DECF01F0DDCF02F00AC044
:101C4400D9FF0BC0DAFFDECF03F0DDCF04F022ECC6
:101C54000FF0000E066E000E076E000E086E000EEA
:101C6400096E6AEC0FF0020E1200080EB86E900EA8
:101C7400AB6E240EAC6EA00EAF6E010EB06E000EF5
:101C84001A6E000E1B6EDFEC0FF0000E1A6E000EC3
:101C94001B6EDAEC0FF0000E1A6E000E1B6EE4ECF5
:101CA4000FF0000E3B6E1200000E1D6E64EF0EF07E
:101CB4001D501B24D96E000E1C20DA6EDF5076EC0A
:101CC4000FF01D2A1D501B24D96E000E1C20DA6E45
:101CD400DF50D8A470EF0EF072EF0EF05AEF0EF052
:101CE4001200000E8D6E000E8C6E000E896E000EBA
:101CF4008A6E000E8B6E070E966E92689368BF0E06
:101D0400946E95687E681F0E7F6E000E7C6EF18E59
:101D1400120001EE00F0320EEE6AE806FDE100EE7C
:101D2400B6F0450EEE6AE806FDE100EE2BF0180E63
:101D3400EE6AE806FDE145904592000166EF0BF07E
:101D4400010E1A6E0001D9B3AAEF0EF0ACEF0EF03B
:101D5400B6EF0EF0D995D2691EEC10F01AEC10F023
:101D64001CEC10F0D8C01AF01A5012000AC001F08E
:101D74000BC002F0000E046E010E036E22EC0FF095
:101D8400000E066E000E076E000E086E000E096E41
:101D94006AEC0FF0040E12000AC001F00BC002F04E
:101DA400000E046E020E036E22EC0FF0000E066E9F
:101DB400000E076E000E086E000E096E6AEC0FF03E
:101DC400020E12000AC001F00BC002F0000E046EF5
:101DD400010E036E22EC0FF0000E066E000E076E6D
:101DE400000E086E000E096E6AEC0FF0020E12006F
:101DF4000AC001F00BC002F0000E046E020E036E66
:101E040022EC0FF0000E066E000E076E000E086E38
:101E1400000E096E6AEC0FF0040E12000001D9A73F
:101E240016EF0FF018EF0FF021EF0FF01AC0D3F0F8
:101E34001BC0D4F01CC0D5F01DC0D6F0D997120039
:101E44000001D9A728EF0FF02AEF0FF033EF0FF0BE
:101E540001C0D3F002C0D4F003C0D5F004C0D6F062
:101E6400D9971200C6BA39EF0FF03BEF0FF044EFE9
:101E74000FF0800EC76E080EC66E000EC56E270EDC
:101E8400C86EC68A1200286E26C023F027C024F02C
:101E9400285019EC0DF0850EE82EFED700F0120044
:101EA4001FC01AF020C01BF021C01CF022C01DF07E
:101EB400000E31EC0CF012001FC01AF020C01BF011
:101EC40021C01CF022C01DF0020E31EC0CF01200F7
:101ED40006C001F007C002F008C003F009C004F016
:101EE400000E6CEC0CF012001A6E9EA87CEF0FF042
:101EF4007EEF0FF077EF0FF01AC0ADFF120020EC69
:101F040010F08CEC0FF073EC0EF0D5EC0FF037EC16
:101F14000EF01200800EC76E080EC66E000EC56E5F
:101F2400270EC86EC69A1200C5BC9BEF0FF09EEF39
:101F34000FF0010E9FEF0FF0000E12000001D98187
:101F4400D251D22509EC10F0030E12000001D98100
:101F5400D880D23509EC10F0050E1200276E26C089
:101F640023F02750A7EC0CF01200276E26C023F0B4
:101F74002750A7EC0CF012000001D993000ED86F83
:101F84000E0E12000001D99128EC10F0040E12007C
:101F94000001D993000ED86F0E0E12001AC036F04D
:101FA4001BC037F01200300ED36E000E9B6E120071
:101FB4001AC0FDF01BC0FEF012001AC043F01BC093
:101FC40044F012001AC0FBF01BC0FCF01200000E1B
:101FD400F7EC0DF0120013EC10F0090E120013ECE4
:101FE40010F00A0E120010EC10F0050E12002EEC88
:101FF40010F0000E120030EC10F0010E120030EC64
:1020040010F0020E120030EC10F0010E1200016EFE
:1020140001C0C9FF1200E1EC0CF01200C59AC5889A
:102024001200C58AC58812009D861200C580120060
:102034009D961200C69A12009E961200D09E12001F
:102044009E9612009E861200C9501200C586120088
:10205400050E1200010E1200C5841200C582120082
:02206400120068
:020000040020DA
:08000000FFFFFFFFFFFFFFFF00
:020000040030CA
:0E000000FF021F1EFF8B85FF0FC00FE00F4099
:00000001FF
