:0400000062EF00F0BB
:100008004582FACF10F0FBCF11F0D9CF12F0DACF3A
:1000180013F0F3CF14F0F4CF15F0F6CF16F0F7CFB6
:1000280017F0F8CF18F0F5CF19F0F2AC1EEF00F08A
:1000380020EF00F04CEF00F0A0A625EF00F027EF2E
:1000480000F03CEF00F0A1A62CEF00F02EEF00F03E
:100058003CEF00F002D83AEF00F00500FA6E3C5091
:10006800FD6E3D50FE6EFF6AFA5012004CEF00F034
:100078009DA641EF00F043EF00F04CEF00F09EA684
:1000880048EF00F04AEF00F04CEF00F02EEF00F0E0
:1000980019C0F5FF18C0F8FF17C0F7FF16C0F6FF24
:1000A80015C0F4FF14C0F3FF13C0DAFF12C0D9FF64
:1000B80011C0FBFF10C0FAFF45921100D3EF0DF0FD
:1010000000EE1DC61DB61D64132814E21D8C166467
:101010001E5C1E541E4C1E441E3C1E341ED61DD883
:10102000180D0A2074696D65203D2025783A2578D1
:101030003A25782056200D0A0000C2C0D9FFC3C04F
:10104000DAFFDECFF6FFDDCFF7FFF86A0800F550D4
:10105000250AD8A42EEF08F030EF08F0A7EF08F02B
:10106000C2C0D9FFC3C0DAFFDE2A000EDD22000EA7
:10107000396E000E386E38C08BF03A683B68C2C0DB
:10108000D9FFC3C0DAFFDECFCCF0DDCFCDF0CCC0CE
:10109000F6FFCDC0F7FFF86A0800F550780AD8A42B
:1010A00054EF08F056EF08F09EEF08F0C4C0D9FFE7
:1010B000C5C0DAFFDFCFC6F0020EDE26DFCFC7F0F5
:1010C000000EDD22C6C0D9FFC7C0DAFFDECFC8F0F0
:1010D000DDCFC9F0010E0001CC25C66F000ECD2179
:1010E000C76FC2C0D9FFC3C0DAFFC6C0DEFFC7C02A
:1010F000DDFF87EF08F0C0C0B0F0C1C0B1F0C8C0DC
:10110000B2F0C9C0B3F0BDEC08F0BCEF08F0CCC041
:10111000F6FFCDC0F7FFF86A0800F550C66FC76B41
:10112000C751000AD8B497EF08F09EEF08F0C651F7
:10113000780AD8B47BEF08F09EEF08F0C2C0D9FF60
:10114000C3C0DAFFDE2A000EDD22BCEF08F0C2C009
:10115000D9FFC3C0DAFFDECFF6FFDDCFF7FFF86AB5
:101160000800F5501A6E1B6AC0C01CF0C1C01DF00B
:101170004DEC09F09EEF08F012003BBEC4EF08F002
:10118000C2EF08F0CBEF08F0000E0001BC6F010EBB
:10119000BB6FCFEF08F03AC0BBF03BC0BCF038C02B
:1011A000B7F039C0B8F0000E0001BE6F1F0EBD6F62
:1011B000000EAB6F18EF09F0BD07D8A0BE07B25103
:1011C0000F0BBF6F090EBF65E8EF08F0EAEF08F0FC
:1011D000F2EF08F0570EBF25B96FBA6B000EBA23B5
:1011E000F8EF08F0300EBF25B96FBA6B000EBA23C6
:1011F000B9C0BFF08C0EBD25D96E000EBE21DA6ECF
:10120000BFC0DFFFBB07D8A0BC07B707D8A0B8078F
:10121000B2C0B4F0B3C0B5F0040EB66FD890B53319
:10122000B433B62F0EEF09F0B4C0B2F0B5C0B3F0CE
:10123000BEBF24EF09F0BE5109E1020EBD5DD8A08A
:1012400024EF09F026EF09F03CEF09F0B251B31199
:10125000D8A42DEF09F02FEF09F0DCEF08F0BCBFA8
:101260003CEF09F0BC5106E1BB05D8B03AEF09F0FC
:101270003CEF09F0DCEF08F0B0C02AF0B1C02BF071
:101280008C0EBD252C6E000EBE212D6EB7C02EF02B
:10129000B8C02FF006EC0BF012001C501D10D8B493
:1012A00054EF09F056EF09F05FEF09F01C501D10E4
:1012B000D8A45DEF09F05FEF09F064EF09F01A5070
:1012C0005FEC0FF0B1EF09F020EE0AF01C50D926C8
:1012D0001D50DA22DE50DE10D8B471EF09F073EF42
:1012E00009F08EEF09F020EE0AF01C50D9261D50AF
:1012F000DA2210EE03F01C50E1261D50E222DE50EF
:10130000E65CE650800A226EDE50800A2258D8B091
:101310008CEF09F08EEF09F0B1EF09F020EE03F049
:101320001C50D9261D50DA22DECF1EF0DDCF1FF073
:101330001CC0D9FF1DC0DAFFDECF20F0DDCF21F0C9
:101340001E502024D96E1F502120DA6E1AC0DFFFF4
:1013500020EE03F01C50D9261D50DA22DE2A000EA2
:10136000DD221200D1EC0EF00009D8B4BAEF09F07A
:10137000BCEF09F0F7EF09F0CAEF09F032EC0FF01B
:1013800013EF0AF02EEC0FF013EF0AF026EC0FF03B
:1013900013EF0AF072C00AF073C00BF002D8DBEF53
:1013A00009F00500FA6E00016651FD6E6751FE6E90
:1013B000FF6AFA5012000C6E0D6A0D50000AD8B484
:1013C000E4EF09F0C6EF09F00C50010AD8B4C6EFFB
:1013D00009F0030AD8B4BEEF09F0010AD8B4C2EF8D
:1013E00009F0070AD8B4C6EF09F0C6EF09F000010A
:1013F00083917DC0D9FF7EC0DAFF7D4B7E2BDF500D
:1014000036EC0FF000017F07D8A080077F518011D4
:10141000D8A40DEF0AF00FEF0AF012EF0AF0060E53
:1014200013EF0AF0030E120053EC0FF07DC0D9FF4A
:101430007EC0DAFFDF6E00017D4B7E2B7F07D8A0D8
:1014400080077F518011D8B428EF0AF02AEF0AF004
:101450002FEF0AF03DEC0FF0050E66EF0AF08387E0
:101460003AEF0AF01AEC0FF066EF0AF01EEC0FF0FC
:1014700066EF0AF06CC00AF06DC00BF002D84AEFBC
:101480000AF00500FA6E6051FD6E6151FE6EFF6A52
:10149000FA5012000C6E0D6A0D50000AD8B453EFCA
:1014A0000AF036EF0AF00C50010AD8B436EF0AF011
:1014B000030AD8B432EF0AF0010AD8B432EF0AF0C6
:1014C000070AD8B436EF0AF036EF0AF0120000012E
:1014D000AC6F20EE31F010EEADF0060EDBCFE3FF87
:1014E000E806FCE2000E236E0001AC51FAEC0BF0B2
:1014F0000001AD6FAD9F010E236EAC51FAEC0BF005
:101500000001AE6FAE9F020E236EAC51FAEC0BF0F1
:101510000001AF6FAF9F030E236EAC51FAEC0BF0DE
:101520000001B06F070EB017040E236EAC51FAEC39
:101530000BF00001B36F3F0EB317050E236EAC51D5
:10154000FAEC0BF00001B16F1F0EB117060E236EFF
:10155000AC51FAEC0BF00001B26F20EEADF000EEF2
:1015600026F0060EDBCFEBFFE806FCE212001C6E55
:10157000010E1D6E000183B5C0EF0AF0C2EF0AF044
:1015800004EF0BF01CC07CF08393838583910E0ED7
:10159000816F010E7B6FF40E7A6F8387B20E606FDE
:1015A0001E0E616F000E6C6F000E6D6FB20E626FDB
:1015B0001E0E636F000E6E6F000E6F6FB20E646FC3
:1015C0001E0E656F000E706F000E716FB20E666FAB
:1015D0001E0E676F000E726F000E736FAE0E686F97
:1015E0001E0E696F000E746F000E756F740E1A6E0A
:1015F0001E0E1B6EFDEC0EF04BEC0FF07CEC0EF0B3
:1016000043EC0FF0000E1D6E1D5012002FBE0BEFAD
:101610000BF00DEF0BF013EF0BF02EC0AEF02FC060
:10162000AFF018EF0BF0000E0001AF6F000EAE6FC1
:10163000000E0001AD6F000EAC6F2CEF0BF0000E32
:101640001B6E200E1A6E2AC01CF02BC01DF04DEC34
:1016500009F00001AC4BAD2BAE51AC5DAD51800A31
:10166000306EAF51800A3058D8A039EF0BF03BEF05
:101670000BF01FEF0BF02CC023F02DC024F02AC07C
:1016800025F02BC026F01DEC0DF012000001838721
:1016900057EF0BF02AEC0FF083EF0BF051EC0FF04B
:1016A000030E83EF0BF026EC0FF083EF0BF06CC012
:1016B0000AF06DC00BF002D867EF0BF00500FA6E70
:1016C0006051FD6E6151FE6EFF6AFA5012000C6EA1
:1016D0000D6A0D50000AD8B470EF0BF053EF0BF009
:1016E0000C50010AD8B453EF0BF0030AD8B44AEFF8
:1016F0000BF0010AD8B44AEF0BF0070AD8B44EEF4A
:101700000BF053EF0BF012001E6E1A501B10D8B4E2
:101710008CEF0BF08EEF0BF0A8EF0BF01E50020DCC
:10172000600EF324D96E000EF420DA6E1AC0DEFFCC
:101730001BC0DDFF1E50020D6C0EF324D96E000E8F
:10174000F420DA6E1CC0DEFF1DC0DDFFBEEF0BF023
:101750001E50020D600EF324D96E000EF420DA6ED6
:10176000B20EDE6E1E0EDD6E1E50020D6C0EF324E8
:10177000D96E000EF420DA6EDE6ADD6A1200056EA4
:1017800001500210D8B4C7EF0BF0C9EF0BF0E3EF34
:101790000BF00550020D600EF324D96E000EF420FC
:1017A000DA6E01C0DEFF02C0DDFF0550020D6C0ED7
:1017B000F324D96E000EF420DA6E03C0DEFF04C0FD
:1017C000DDFFF9EF0BF00550020D600EF324D96E2A
:1017D000000EF420DA6EB20EDE6E1E0EDD6E0550C7
:1017E000020D6C0EF324D96E000EF420DA6EDE6A60
:1017F000DD6A1200246E000E256E2450B7EC0AF04C
:101800000009D8B406EF0CF008EF0CF0FDEF0BF078
:10181000580E1F6E1C0E206E250E216E000E226EBD
:101820008DEC0EF0230E1A6E000E1B6E000E1D6E58
:10183000010E1C6E58EC0EF0000E1F6E000E206E96
:10184000000E216E000E226E99EC0EF016EC0FF0D9
:10185000EAEC0DF0E806D8B430EF0CF032EF0CF003
:1018600028EF0CF0255012004FEC0FF0000183A17F
:101870003CEF0CF03EEF0CF04BEF0CF0D1EC0EF027
:101880000009D8B446EF0CF048EF0CF04BEF0CF029
:101890000F0E0001816F00018151020D010EF32432
:1018A000F66E100EF420F76EF86A000EF8220900AA
:1018B000F5CF0EF00900F5CF0FF002D869EF0CF06C
:1018C0000500FA6E0E50FD6E0F50FE6EFF6AFA5064
:1018D00012000001816F120000018391020E826FDD
:1018E0007AEF0CF02AEC0FF09EEF0CF026EC0FF0E4
:1018F0009EEF0CF070C00AF071C00BF002D88AEFB6
:101900000CF00500FA6E6451FD6E6551FE6EFF6AC3
:10191000FA5012000C6E0D6A0D50000AD8B493EF05
:101920000CF076EF0CF00C50020AD8B472EF0CF009
:10193000010AD8B472EF0CF076EF0CF01200B1ECA3
:101940000EF0F28EF28C680E67EC0AF020EE84F056
:10195000060EEBCFDBFFE806FCE2000E0001D66FBF
:10196000010ED76F210ED86F100ED96F84C0DAF038
:10197000DB6B85C0DCF0DD6B86C0DEF0DF6BF5EC89
:101980000CF0000E1B6E010E1C6E9EEC0DF0C7EFEE
:101990000CF062EF00F0D0C0D4F0D1C0D5F0E0EF91
:1019A0000CF0CEC0C0F0CFC0C1F0D40E0001C26FA9
:1019B000000EC36FD2C0C4F0D3C0C5F01DEC08F058
:1019C000D4C0F6FFD5C0F7FFF86A0800F55000094B
:1019D000D8A4EDEF0CF0EFEF0CF0D1EF0CF0000E0F
:1019E0000001CF6F000ECE6F1200DA0E0001E06F23
:1019F000000EE16FD6C0E2F0D7C0E3F0000EE66F54
:101A0000000EE56F000EED6F000EEC6FE20ECE6F74
:101A1000000ECF6FD8C0D0F0D9C0D1F0E00ED26F99
:101A2000000ED36FCBEC0CF00001E551D625D96E3A
:101A3000E651D721DA6EDF6A1200000E296E000E21
:101A4000286E2EEF0DF027C01AF01B6A25C01CF07F
:101A500026C01DF04DEC09F0284A292A28502324DD
:101A6000D96E29502420DA6EDF50276E2750D8A473
:101A70003CEF0DF03EEF0DF023EF0DF012001A6E6B
:101A8000010E1B6E000183B348EF0DF04AEF0DF01D
:101A90005DEF0DF08383000E1B6E1A50D8B453EF28
:101AA0000DF055EF0DF059EF0DF0010E816F5BEF6A
:101AB0000DF0020E816F45EC0FF01B50120020EE6E
:101AC00002F00A50D9260B50DA22DECF01F0DDCF2A
:101AD00002F00AC0D9FF0BC0DAFFDECF03F0DDCF82
:101AE00004F06AEC0EF0000E066E000E076E000E9B
:101AF000086E000E096EA5EC0EF0020E1200080E24
:101B0000B86E900EAB6E240EAC6EA00EAF6E010ED2
:101B1000B06E000E1A6E000E1B6E0CEC0FF0000E75
:101B20001A6E000E1B6E07EC0FF0000E1A6E000E00
:101B30001B6E11EC0FF0000E3E6E1200000E1D6EBB
:101B4000ACEF0DF01D501B24D96E000E1C20DA6E78
:101B5000DF50BCEC0EF01D2A1D501B24D96E000E68
:101B60001C20DA6EDF50D8A4B8EF0DF0BAEF0DF0FC
:101B7000A2EF0DF01200000E8D6E000E8C6E000EA6
:101B8000896E000E8A6E000E8B6E070E966E92683E
:101B90009368BF0E946E95687E681F0E7F6E000E70
:101BA0007C6EF18E120001EE00F0320EEE6AE80655
:101BB000FDE100EE60F04C0EEE6AE806FDE100EE9D
:101BC00031F00E0EEE6AE806FDE145904592000107
:101BD0009FEF0CF0010E1A6E000183B3F2EF0DF0CF
:101BE000F4EF0DF0FEEF0DF083957C694BEC0FF0F8
:101BF00047EC0FF049EC0FF082C01AF01A501200B7
:101C00000AC001F00BC002F0000E046E010E036E5C
:101C10006AEC0EF0000E066E000E076E000E086EE7
:101C2000000E096EA5EC0EF0040E12000AC001F0C1
:101C30000BC002F0000E046E020E036E6AEC0EF092
:101C4000000E066E000E076E000E086E000E096E86
:101C5000A5EC0EF0020E12000AC001F00BC002F05B
:101C6000000E046E010E036E6AEC0EF0000E066E9E
:101C7000000E076E000E086E000E096EA5EC0EF049
:101C8000020E12000AC001F00BC002F0000E046E3A
:101C9000020E036E6AEC0EF0000E066E000E076E6A
:101CA000000E086E000E096EA5EC0EF0040E120078
:101CB000000183A75EEF0EF060EF0EF069EF0EF00B
:101CC0001AC07DF01BC07EF01CC07FF01DC080F0EC
:101CD00083971200000183A770EF0EF072EF0EF0F1
:101CE0007BEF0EF001C07DF002C07EF003C07FF0FC
:101CF00004C080F083971200C6BA81EF0EF083EF24
:101D00000EF08CEF0EF0800EC76E080EC66E000E41
:101D1000C56E270EC86EC68A12001FC01AF020C0FA
:101D20001BF021C01CF022C01DF0000E84EC0BF053
:101D300012001FC01AF020C01BF021C01CF022C0EE
:101D40001DF0020E84EC0BF0120006C001F007C07B
:101D500002F008C003F009C004F0000EBFEC0BF065
:101D600012004DEC0FF0C7EC0EF0BBEC0DF002ECE6
:101D70000FF07FEC0DF012001A6E9EA8C2EF0EF06D
:101D8000C4EF0EF0BDEF0EF01AC0ADFF1200800ED2
:101D9000C76E080EC66E000EC56E270EC86EC69AB8
:101DA0001200C5BCD6EF0EF0D9EF0EF0010EDAEF3F
:101DB0000EF0000E1200000183817C517C2536EC70
:101DC0000FF0030E120000018381D8807C3536ECC1
:101DD0000FF0050E120000018393000E826F0E0EAD
:101DE00012000001839155EC0FF0040E1200000167
:101DF0008393000E826F0E0E12001AC03CF01BC0BF
:101E00003DF01200300ED36E000E9B6E12001AC011
:101E100041F01BC042F012001AC043F01BC044F056
:101E200012001AC03FF01BC040F01200000E3FEC41
:101E30000DF0120040EC0FF0090E120040EC0FF014
:101E40000A0E12003DEC0FF0050E12005BEC0FF0D5
:101E5000000E12005DEC0FF0010E12005DEC0FF0B1
:101E6000020E12005DEC0FF0010E1200016E01C0B7
:101E7000C9FF120034EC0CF01200C59AC58812009C
:101E8000C58AC58812009D861200C58012009D96E5
:101E90001200C69A12009E961200D09E12009E96C4
:101EA00012009E861200C9501200C5861200050E4F
:101EB0001200010E1200C5841200C5821200120029
:020000040020DA
:08000000FFFFFFFFFFFFFFFF00
:020000040030CA
:0E000000FF021F1EFF8B85FF0FC00FE00F4099
:00000001FF
