:0400000062EF00F0BB
:100008004682FACF37F0FBCF38F0D9CF39F0DACFC4
:100018003AF0F3CF3BF0F4CF3CF0F6CF3DF0F7CF1A
:100028003EF0F8CF3FF0F5CF40F0F2AC1EEF00F015
:1000380020EF00F04CEF00F0A0A625EF00F027EF2E
:1000480000F03CEF00F0A1A62CEF00F02EEF00F03E
:100058003CEF00F002D83AEF00F00500FA6E2550A8
:10006800FD6E2650FE6EFF6AFA5012004CEF00F04B
:100078009DA641EF00F043EF00F04CEF00F09EA684
:1000880048EF00F04AEF00F04CEF00F02EEF00F0E0
:1000980040C0F5FF3FC0F8FF3EC0F7FF3DC0F6FF88
:1000A8003CC0F4FF3BC0F3FF3AC0DAFF39C0D9FFC8
:1000B80038C0FBFF37C0FAFF46921100C4EF0BF0BF
:1010000000F818A41896182210E010EE1848133AA9
:101010001932192A1922191A1912190A19E4181859
:10102000150041EC0CF00009D8B419EF08F01BEFE3
:1010300008F055EF08F029EF08F09DEC0CF06FEF89
:1010400008F099EC0CF06FEF08F091EC0CF06FEFFA
:1010500008F013C031F014C032F002D839EF08F0B4
:101060000500FA6E0750FD6E0850FE6EFF6AFA50DA
:101070001200336E346A3450000AD8B442EF08F0DC
:1010800025EF08F03350010AD8B425EF08F0030A21
:10109000D8B41DEF08F0010AD8B421EF08F0070A10
:1010A000D8B425EF08F025EF08F024901EC0D9FF32
:1010B0001FC0DAFF1E4A1F2ADF50A1EC0CF02006E9
:1010C000D8A0210620502110D8A469EF08F06BEFBA
:1010D00008F06EEF08F0060E6FEF08F0030E120036
:1010E000BEEC0CF01EC0D9FF1FC0DAFFDF6E1E4A37
:1010F0001F2A2006D8A0210620502110D8B483EF43
:1011000008F085EF08F08AEF08F0A8EC0CF0050E67
:10111000C1EF08F0248695EF08F085EC0CF0C1EFE4
:1011200008F089EC0CF0C1EF08F00DC031F00EC0F2
:1011300032F002D8A5EF08F00500FA6E0150FD6EFE
:101140000250FE6EFF6AFA501200336E346A345059
:10115000000AD8B4AEEF08F091EF08F03350010A5E
:10116000D8B491EF08F0030AD8B48DEF08F0010A63
:10117000D8B48DEF08F0070AD8B491EF08F091EFDA
:1011800008F012000001606F010E0001616F24B4CD
:10119000CCEF08F0CEEF08F011EF09F060C01DF0C1
:1011A0002492248424900E0E226E010E1C6EF40EE6
:1011B0001B6E2486880E016E190E026E000E0D6ED7
:1011C000000E0E6E880E036E190E046E000E0F6E6A
:1011D000000E106E880E056E190E066E000E116E52
:1011E000000E126E880E076E190E086E000E136E3A
:1011F000000E146E840E096E190E0A6E000E156E26
:10120000000E166E4A0E416E190E426E59EC0CF02D
:10121000B6EC0CF0E6EC0BF0AEEC0CF0000E0001BE
:10122000616F615112000001716F20EE81F010EECC
:1012300072F0060EDBCFE3FFE806FCE2000E436E21
:101240000001715163EC09F00001726F729F010E91
:10125000436E715163EC09F00001736F739F020ECE
:10126000436E715163EC09F00001746F749F030EBB
:10127000436E715163EC09F00001756F070E75172D
:10128000040E436E715163EC09F00001786F3F0E5C
:101290007817050E436E715163EC09F00001766F0B
:1012A0001F0E7617060E436E715163EC09F00001B4
:1012B000776F20EE72F000EE6AF0060EDBCFEBFFE8
:1012C000E806FCE212000001686F000E0001696F81
:1012D00000016851C2EC08F00009D8B472EF09F0BF
:1012E00074EF09F068EF09F0060E0001646F170E45
:1012F000656F690E666F000E676F08EC0CF0430EA9
:101300000001606F000E616F000E636F010E626F6F
:10131000D5EC0BF0000E0001646F000E656F000E3F
:10132000666F000E676F14EC0CF081EC0CF0AFEC04
:101330000BF0E806D8B49FEF09F0A1EF09F097EFA2
:1013400009F00001695112002486B4EF09F095EC10
:101350000CF0E0EF09F0BCEC0CF0030EE0EF09F04C
:1013600091EC0CF0E0EF09F00DC031F00EC032F05E
:1013700002D8C4EF09F00500FA6E0150FD6E02506C
:10138000FE6EFF6AFA501200336E346A3450000A5F
:10139000D8B4CDEF09F0B0EF09F03350010AD8B45A
:1013A000B0EF09F0030AD8B4A7EF09F0010AD8B4E6
:1013B000A7EF09F0070AD8B4ABEF09F0B0EF09F0D6
:1013C0001200416E000160516111D8B4EAEF09F0DA
:1013D000ECEF09F006EF0AF04150020D010EF32484
:1013E000D96E000EF420DA6E60C0DEFF61C0DDFF52
:1013F0004150020D0D0EF324D96E000EF420DA6E6A
:1014000062C0DEFF63C0DDFF1CEF0AF04150020D39
:10141000010EF324D96E000EF420DA6E880EDE6E13
:10142000190EDD6E4150020D0D0EF324D96E000E23
:10143000F420DA6EDE6ADD6A12002C6E2850291064
:10144000D8B425EF0AF027EF0AF041EF0AF02C504C
:10145000020D010EF324D96E000EF420DA6E28C0BE
:10146000DEFF29C0DDFF2C50020D0D0EF324D96ED6
:10147000000EF420DA6E2AC0DEFF2BC0DDFF57EF2E
:101480000AF02C50020D010EF324D96E000EF42048
:10149000DA6E880EDE6E190EDD6E2C50020D0D0E0A
:1014A000F324D96E000EF420DA6EDE6ADD6A1200D3
:1014B000BAEC0CF024A05FEF0AF061EF0AF06DEFD8
:1014C0000AF041EC0CF00009D8B469EF0AF06BEFB8
:1014D0000AF06DEF0AF00F0E226E2250020D010E7F
:1014E000F324F66E100EF420F76EF86A000EF82260
:1014F0000900F5CF35F00900F5CF36F002D88AEFB4
:101500000AF00500FA6E3550FD6E3650FE6EFF6A29
:10151000FA501200226E12002490020E236E99EFF0
:101520000AF095EC0CF0BDEF0AF091EC0CF0BDEF79
:101530000AF011C031F012C032F002D8A9EF0AF05F
:101540000500FA6E0550FD6E0650FE6EFF6AFA50F9
:101550001200336E346A3450000AD8B4B2EF0AF085
:1015600095EF0AF03350020AD8B491EF0AF0010A5D
:10157000D8B491EF0AF095EF0AF012002CEC0CF0C1
:10158000F28EF28C010E436E680E63EC09F00001DE
:101590008C6F680E13EC09F020EE7AF0060EEBCF9C
:1015A000DBFFE806FCE2340E0001796FF10EE82E55
:1015B000FED7792FFCD700F000F0C9EF0AF062EFF8
:1015C00000F020EE02F03150D9263250DA22DECF80
:1015D00028F0DDCF29F031C0D9FF32C0DAFFDECFED
:1015E0002AF0DDCF2BF0F7EC0BF0000E2D6E000E85
:1015F0002E6E000E2F6E000E306E20EC0CF0020EE0
:101600001200416E010E426E24B209EF0BF00BEF97
:101610000BF01EEF0BF02482000E426E4150D8B446
:1016200014EF0BF016EF0BF01AEF0BF0010E226E19
:101630001CEF0BF0020E226EB0EC0CF042501200C8
:10164000080EB86E900EAB6E240EAC6EA00EAF6E90
:10165000010EB06E000E416E000E426E68EC0CF092
:10166000000E416E000E426E63EC0CF0000E416EF7
:10167000000E426E6DEC0CF0000E276E1200000E94
:101680008D6E000E8C6E000E896E000E8A6E000E3E
:101690008B6E070E966E92689368BF0E946E956877
:1016A0007E681F0E7F6E000E7C6EF18E120031C0C0
:1016B00028F032C029F0000E2B6E010E2A6EF7ECD6
:1016C0000BF0000E2D6E000E2E6E000E2F6E000E13
:1016D000306E20EC0CF0040E120031C028F032C045
:1016E00029F0000E2B6E020E2A6EF7EC0BF0000EA6
:1016F0002D6E000E2E6E000E2F6E000E306E20EC42
:101700000CF0020E120031C028F032C029F0000E99
:101710002B6E010E2A6EF7EC0BF0000E2D6E000EF4
:101720002E6E000E2F6E000E306E20EC0CF0020EAE
:10173000120031C028F032C029F0000E2B6E020ECC
:101740002A6EF7EC0BF0000E2D6E000E2E6E000EC2
:101750002F6E000E306E20EC0CF0040E1200010E05
:10176000416E24B2B6EF0BF0B8EF0BF0C2EF0BF006
:1017700024941D68B6EC0CF0B2EC0CF0B4EC0CF058
:1017800023C041F04150120000EE7AF00E0EEE6AD6
:10179000E806FDE100EE01F0270EEE6AE806FDE145
:1017A000469046920001BEEF0AF024A6DAEF0BF055
:1017B000DCEF0BF0E5EF0BF060C01EF061C01FF036
:1017C00062C020F063C021F024961200C6BAEBEF8D
:1017D0000BF0EDEF0BF0F6EF0BF0800EC76E080E7E
:1017E000C66E000EC56E270EC86EC68A120024A6ED
:1017F000FCEF0BF0FEEF0BF007EF0CF028C01EF033
:1018000029C01FF02AC020F02BC021F0249612001E
:1018100064C060F065C061F066C062F067C063F0EC
:10182000000EE1EC09F0120064C060F065C061F0E8
:1018300066C062F067C063F0020EE1EC09F01200CE
:101840002DC028F02EC029F02FC02AF030C02BF078
:10185000000E1DEC0AF01200B8EC0CF037EC0CF0A6
:101860003FEC0BF05EEC0CF020EC0BF01200800E65
:10187000C76E080EC66E000EC56E270EC86EC69ADD
:101880001200C5BC46EF0CF049EF0CF0010E4AEF18
:101890000CF0000E120024801D501D24A1EC0CF051
:1018A000030E12002480D8801D34A1EC0CF0050E2C
:1018B000120041C025F042C026F01200300ED36E57
:1018C000000E9B6E120041C08AF042C08BF01200E5
:1018D00041C044F042C045F0120041C088F042C00F
:1018E00089F012002492000E236E0E0E1200249036
:1018F000C0EC0CF0040E12002492000E236E0E0EAB
:101900001200000E01EC0BF01200ABEC0CF0090E13
:101910001200ABEC0CF00A0E1200A8EC0CF0050E55
:101920001200C6EC0CF0000E1200C8EC0CF0010E18
:101930001200C8EC0CF0020E1200C8EC0CF0010E04
:101940001200286E28C0C9FF120058EC0AF01200DD
:10195000C59AC5881200C58AC58812009D861200E6
:10196000C58012009D961200C69A12009E96120023
:10197000D09E12009E9612009E861200C950120040
:10198000C5861200050E1200010E1200C584120059
:04199000C5821200FA
:020000040020DA
:08000000FFFFFFFFFFFFFFFF00
:020000040030CA
:0E000000FF021F1EFF8B85FF0FC00FE00F4099
:00000001FF
