:0400000062EF00F0BB
:100008005582FACF45F0FBCF46F0D9CF47F0DACF8B
:1000180048F0F3CF49F0F4CF4AF0F6CF4BF0F7CFE2
:100028004CF0F8CF4DF0F5CF4EF0F2AC1EEF00F0EB
:1000380020EF00F04CEF00F0A0A625EF00F027EF2E
:1000480000F03CEF00F0A1A62CEF00F02EEF00F03E
:100058003CEF00F002D83AEF00F00500FA6E33509A
:10006800FD6E3450FE6EFF6AFA5012004CEF00F03D
:100078009DA641EF00F043EF00F04CEF00F09EA684
:1000880048EF00F04AEF00F04CEF00F02EEF00F0E0
:100098004EC0F5FF4DC0F8FF4CC0F7FF4BC0F6FF50
:1000A8004AC0F4FF49C0F3FF48C0DAFF47C0D9FF90
:1000B80046C0FBFF45C0FAFF5592110052EF0AF007
:1010000000C4157A156C152210E010BA158411FE73
:1010100015F615EE15E615DE15D615CE15B015DC50
:101020001200ACEC0AF00009D8B419EF08F01BEF7D
:1010300008F055EF08F029EF08F0FFEC0AF06FEF29
:1010400008F0FBEC0AF06FEF08F0F3EC0AF06FEF3A
:1010500008F013C03FF014C040F002D839EF08F098
:101060000500FA6E0750FD6E0850FE6EFF6AFA50DA
:101070001200416E426A4250000AD8B442EF08F0B2
:1010800025EF08F04150010AD8B425EF08F0030A13
:10109000D8B41DEF08F0010AD8B421EF08F0070A10
:1010A000D8B425EF08F025EF08F024901EC0D9FF32
:1010B0001FC0DAFF1E4A1F2ADF5003EC0BF0200688
:1010C000D8A0210620502110D8A469EF08F06BEFBA
:1010D00008F06EEF08F0060E6FEF08F0030E120036
:1010E00016EC0BF01EC0D9FF1FC0DAFFDF6E1E4AE0
:1010F0001F2A2006D8A0210620502110D8B483EF43
:1011000008F085EF08F08AEF08F00AEC0BF0050E06
:10111000C1EF08F0248695EF08F0E7EC0AF0C1EF84
:1011200008F0EBEC0AF0C1EF08F00DC03FF00EC084
:1011300040F002D8A5EF08F00500FA6E0150FD6EF0
:101140000250FE6EFF6AFA501200416E426A42502F
:10115000000AD8B4AEEF08F091EF08F04150010A50
:10116000D8B491EF08F0030AD8B48DEF08F0010A63
:10117000D8B48DEF08F0070AD8B491EF08F091EFDA
:1011800008F012002486D2EF08F0F7EC0AF0FEEF28
:1011900008F014EC0BF0030EFEEF08F0F3EC0AF08D
:1011A000FEEF08F00DC03FF00EC040F002D8E2EFB5
:1011B00008F00500FA6E0150FD6E0250FE6EFF6AE7
:1011C000FA501200416E426A4250000AD8B4EBEF66
:1011D00008F0CEEF08F04150010AD8B4CEEF08F085
:1011E000030AD8B4C5EF08F0010AD8B4C5EF08F077
:1011F000070AD8B4C9EF08F0CEEF08F012003A6E33
:1012000036503710D8B407EF09F009EF09F023EF93
:1012100009F03A50020D010EF324D96E000EF420AD
:10122000DA6E36C0DEFF37C0DDFF3A50020D0D0E1C
:10123000F324D96E000EF420DA6E38C0DEFF39C018
:10124000DDFF39EF09F03A50020D010EF324D96E9B
:10125000000EF420DA6E380EDE6E160EDD6E3A5099
:10126000020D0D0EF324D96E000EF420DA6EDE6A44
:10127000DD6A120012EC0BF024A041EF09F043EFFD
:1012800009F04FEF09F0ACEC0AF00009D8B44BEFCD
:1012900009F04DEF09F04FEF09F00F0E226E2250CA
:1012A000020D010EF324F66E100EF420F76EF86AAC
:1012B000000EF8220900F5CF43F00900F5CF44F005
:1012C00002D86CEF09F00500FA6E4350FD6E4450F1
:1012D000FE6EFF6AFA501200226E12002490020E77
:1012E000236E7BEF09F0F7EC0AF09FEF09F0F3ECC7
:1012F0000AF09FEF09F011C03FF012C040F002D891
:101300008BEF09F00500FA6E0550FD6E0650FE6E7B
:10131000FF6AFA501200416E426A4250000AD8B485
:1013200094EF09F077EF09F04150020AD8B473EF57
:1013300009F0010AD8B473EF09F077EF09F0120051
:10134000080EB86E900EAB6E240EAC6EA00EAF6E93
:10135000010EB06E000E0001926F000E936FCEEC86
:101360000AF0000E0001926F000E936FC9EC0AF0B4
:10137000000E0001926F000E936FD3EC0AF0000E86
:10138000356E120020EE02F03F50D9264050DA228E
:10139000DECF36F0DDCF37F03FC0D9FF40C0DAFFF7
:1013A000DECF38F0DDCF39F063EC0AF0000E3B6E93
:1013B000000E3C6E000E3D6E000E3E6E80EC0AF09C
:1013C000020E1200000E8D6E000E8C6E000E896EE5
:1013D000000E8A6E000E8B6E070E966E92689368F2
:1013E000BF0E946E95687E681F0E7F6E000E7C6E39
:1013F000F18E12003FC036F040C037F0000E396E5B
:10140000010E386E63EC0AF0000E3B6E000E3C6E6F
:10141000000E3D6E000E3E6E80EC0AF0040E1200CF
:101420003FC036F040C037F0000E396E020E386E05
:1014300063EC0AF0000E3B6E000E3C6E000E3D6E3B
:10144000000E3E6E80EC0AF0020E12003FC036F035
:1014500040C037F0000E396E010E386E63EC0AF0B2
:10146000000E3B6E000E3C6E000E3D6E000E3E6E9A
:1014700080EC0AF0020E12003FC036F040C037F098
:10148000000E396E020E386E63EC0AF0000E3B6EF1
:10149000000E3C6E000E3D6E000E3E6E80EC0AF0BB
:1014A000040E120000EE60F0320EEE6AE806FDE176
:1014B00000EE01F0350EEE6AE806FDE1559055921A
:1014C00000018CEF0AF024A668EF0AF06AEF0AF038
:1014D00073EF0AF036C01EF037C01FF038C020F09E
:1014E00039C021F0249612000001926F9EA87BEF74
:1014F0000AF07DEF0AF076EF0AF092C0ADFF12001D
:101500003BC036F03CC037F03DC038F03EC039F04B
:10151000000EFFEC08F0120097EC0AF0F28EF28C4D
:10152000410E74EC0AF093EF0AF062EF00F010EC59
:101530000BF0A2EC0AF0E2EC09F0C4EC0AF0A0EC2B
:1015400009F01200800EC76E080EC66E000EC56E42
:10155000270EC86EC69A1200C5BCB1EF0AF0B4EFF0
:101560000AF0010EB5EF0AF0000E120024801D50A3
:101570001D2403EC0BF0030E12002480D8801D34D0
:1015800003EC0BF0050E1200300ED36E000E9B6EB6
:10159000120092C051F093C052F0120092C053F06A
:1015A00093C054F0120092C04FF093C050F012005C
:1015B0002492000E236E0E0E1200249018EC0BF0F5
:1015C000040E12002492000E236E0E0E12000DEC7B
:1015D0000BF0090E12000DEC0BF00A0E12000AECD3
:1015E0000BF0050E12001EEC0BF0000E120020ECAA
:1015F0000BF0010E120020EC0BF0020E120020EC9A
:101600000BF0010E1200366E36C0C9FF12003AEC24
:1016100009F01200C59AC5881200C58AC588120053
:10162000D09E12009E9612009E861200C950120093
:10163000C5861200050E1200010E1200C5841200AC
:04164000C58212004D
:020000040020DA
:08000000FFFFFFFFFFFFFFFF00
:020000040030CA
:0E000000FF021F1EFF8B85FF0FC00FE00F4099
:00000001FF
