:0400000062EF00F0BB
:100008004682FACF10F0FBCF11F0D9CF12F0DACF39
:1000180013F0F3CF14F0F4CF15F0F6CF16F0F7CFB6
:1000280017F0F8CF18F0F5CF19F0F2AC1EEF00F08A
:1000380020EF00F04CEF00F0A0A625EF00F027EF2E
:1000480000F03CEF00F0A1A62CEF00F02EEF00F03E
:100058003CEF00F002D83AEF00F00500FA6E385095
:10006800FD6E3950FE6EFF6AFA5012004CEF00F038
:100078009DA641EF00F043EF00F04CEF00F09EA684
:1000880048EF00F04AEF00F04CEF00F02EEF00F0E0
:1000980019C0F5FF18C0F8FF17C0F7FF16C0F6FF24
:1000A80015C0F4FF14C0F3FF13C0DAFF12C0D9FF64
:1000B80011C0FBFF10C0FAFF469211001FEF0EF0AF
:1010000000861E5E1E4E1E6E13E8147A1E4A17FCE2
:101010001EF41EEC1EE41EDC1ED41ECC1E6E1E969C
:101020001974696D65203A2025783A25783A257833
:10103000200D44617465203A2025783A25783A25B8
:0310400078000035
:101044007CC0D9FF7DC0DAFFDECFF6FFDDCFF7FF2E
:10105400F86A0800F550250AD8A433EF08F035EFF4
:1010640008F0ACEF08F07CC0D9FF7DC0DAFFDE2ABF
:10107400000EDD22000E356E000E346E34C0D8F042
:10108400366837687CC0D9FF7DC0DAFFDECF84F0D4
:10109400DDCF85F084C0F6FF85C0F7FFF86A08004D
:1010A400F550780AD8A459EF08F05BEF08F0A3EFE5
:1010B40008F07EC0D9FF7FC0DAFFDFCF2BF0020E2D
:1010C400DE26DFCF2CF0000EDD222BC0D9FF2CC092
:1010D400DAFFDECF80F0DDCF81F0010E0001842540
:1010E4002B6E000E85212C6E7CC0D9FF7DC0DAFFEB
:1010F4002BC0DEFF2CC0DDFF8CEF08F07AC06AF055
:101104007BC06BF080C06CF081C06DF0C2EC08F065
:10111400C1EF08F084C0F6FF85C0F7FFF86A080045
:10112400F5502B6E2C6A2C50000AD8B49CEF08F0B2
:10113400A3EF08F02B50780AD8B480EF08F0A3EF9F
:1011440008F07CC0D9FF7DC0DAFFDE2A000EDD2264
:10115400C1EF08F07CC0D9FF7DC0DAFFDECFF6FF17
:10116400DDCFF7FFF86A0800F5501A6E1B6A7AC0E3
:101174001CF07BC01DF052EC09F0A3EF08F0120044
:1011840037BEC9EF08F0C7EF08F0D0EF08F0000E43
:101194000001766F010E756FD4EF08F036C075F05C
:1011A40037C076F034C071F035C072F0000E000123
:1011B400786F1F0E776F000EF86F1DEF09F0770739
:1011C400D8A078076C510F0B796F090E7965EDEF94
:1011D40008F0EFEF08F0F7EF08F0570E7925736F7A
:1011E400746B000E7423FDEF08F0300E7925736FD5
:1011F400746B000E742373C079F0D90E7725D96E01
:10120400000E7821DA6E79C0DFFF7507D8A0760763
:101214007107D8A072076CC06EF06DC06FF0040E39
:10122400706FD8906F336E33702F13EF09F06EC068
:101234006CF06FC06DF078BF29EF09F0785109E1C7
:10124400020E775DD8A029EF09F02BEF09F041EFEA
:1012540009F06C516D11D8A432EF09F034EF09F0A4
:10126400E1EF08F076BF41EF09F0765106E175052C
:10127400D8B03FEF09F041EF09F0E1EF08F06AC0A0
:1012840060F06BC061F0D90E7725626F000E782193
:10129400636F71C064F072C065F066EC0BF012000D
:1012A4001C501D10D8B459EF09F05BEF09F064EF3E
:1012B40009F01C501D10D8A462EF09F064EF09F086
:1012C40069EF09F01A50ABEC0FF0B6EF09F020EE1D
:1012D4000AF01C50D9261D50DA22DE50DE10D8B494
:1012E40076EF09F078EF09F093EF09F020EE0AF0B9
:1012F4001C50D9261D50DA2210EE03F01C50E126B2
:101304001D50E222DE50E65CE650800A226EDE507A
:10131400800A2258D8B091EF09F093EF09F0B6EFA4
:1013240009F020EE03F01C50D9261D50DA22DECF3E
:101334001EF0DDCF1FF01CC0D9FF1DC0DAFFDECFC9
:1013440020F0DDCF21F01E502024D96E1F50212023
:10135400DA6E1AC0DFFF20EE03F01C50D9261D50B0
:10136400DA22DE2A000EDD2212001DEC0FF0000945
:10137400D8B4BFEF09F0C1EF09F0FCEF09F0CFEFEB
:1013840009F07EEC0FF018EF0AF07AEC0FF018EF8A
:101394000AF072EC0FF018EF0AF0C6C00AF0C7C0EA
:1013A4000BF002D8E0EF09F00500FA6E0001BA5123
:1013B400FD6EBB51FE6EFF6AFA5012000C6E0D6A90
:1013C4000D50000AD8B4E9EF09F0CBEF09F00C5046
:1013D400010AD8B4CBEF09F0030AD8B4C3EF09F07B
:1013E400010AD8B4C7EF09F0070AD8B4CBEF09F063
:1013F400CBEF09F00001D791D1C0D9FFD2C0DAFFF9
:10140400D14BD22BDF5082EC0FF00001D307D8A0D0
:10141400D407D351D411D8A412EF0AF014EF0AF070
:1014240017EF0AF0060E18EF0AF0030E120000017F
:10143400AC51AD11D8B421EF0AF023EF0AF073EFE9
:101444000AF0000E8E6F010E8F6F210E906F100E3A
:10145400916FACC0D9FFADC0DAFFDF50AE6FAE51B3
:10146400926F936B20EE01F0AC51D926AD51DA2284
:10147400DF50AF6FAF51946F956B20EE02F0AC511B
:10148400D926AD51DA22DF50B06FB051966F976B09
:1014940020EE06F0AC51D926AD51DA22DF50B16FFF
:1014A400B151986F996B20EE04F0AC51D926AD512F
:1014B400DA22DF50B26FB2519A6F9B6B20EE05F0C7
:1014C400AC51D926AD51DA22DF50B36FB3519C6FC2
:1014D4009D6B28EC0DF0000E1B6E010E1C6ED1EC02
:1014E4000DF012009FEC0FF0D1C0D9FFD2C0DAFF8B
:1014F400DF6E0001D14BD22BD307D8A0D407D35130
:10150400D411D8B488EF0AF08AEF0AF08FEF0AF00A
:1015140089EC0FF0050EC6EF0AF0D7879AEF0AF0B0
:1015240066EC0FF0C6EF0AF06AEC0FF0C6EF0AF0B3
:10153400C0C00AF0C1C00BF002D8AAEF0AF005003F
:10154400FA6EB451FD6EB551FE6EFF6AFA50120088
:101554000C6E0D6A0D50000AD8B4B3EF0AF096EF82
:101564000AF00C50010AD8B496EF0AF0030AD8B472
:1015740092EF0AF0010AD8B492EF0AF0070AD8B43D
:1015840096EF0AF096EF0AF012000001606F20EE69
:101594002DF010EE61F0060EDBCFE3FFE806FCE26F
:1015A400000E236E0001605159EC0CF00001616FD4
:1015B400619F010E236E605159EC0CF00001626FC3
:1015C400629F020E236E605159EC0CF00001636FB0
:1015D400639F030E236E605159EC0CF00001646F9D
:1015E400070E6417040E236E605159EC0CF00001D1
:1015F400676F3F0E6717050E236E605159EC0CF0B0
:101604000001656F1F0E6517060E236E605159ECBD
:101614000CF00001666F20EE61F000EE26F0060E7D
:10162400DBCFEBFFE806FCE212001C6E010E1D6E20
:101634000001D7B520EF0BF022EF0BF064EF0BF0B5
:101644001CC0D0F0D793D785D7910E0ED56F010E5D
:10165400CF6FF40ECE6FD7874A0EB46F1F0EB56FDF
:10166400000EC06F000EC16F4A0EB66F1F0EB76F2B
:10167400000EC26F000EC36F4A0EB86F1F0EB96F13
:10168400000EC46F000EC56F4A0EBA6F1F0EBB6FFB
:10169400000EC66F000EC76F460EBC6F1F0EBD6FE7
:1016A400000EC86F000EC96F0C0E1A6E1F0E1B6E53
:1016B40049EC0FF097EC0FF0C8EC0EF08FEC0FF044
:1016C400000E1D6E1D501200000165BF6CEF0BF083
:1016D4006EEF0BF074EF0BF064C068F065C069F056
:1016E40078EF0BF0000E696F000E686F000E676FE5
:1016F400000E666F8BEF0BF0000E1B6E200E1A6E41
:1017040060C01CF061C01DF052EC09F00001664B92
:10171400672B6851665D6751800A2A6E6951800A99
:101724002A58D8A098EF0BF09AEF0BF07EEF0BF04D
:1017340062C023F063C024F060C025F061C026F0CD
:1017440050EC0DF012000001D787B6EF0BF076ECE9
:101754000FF0E2EF0BF09DEC0FF0030EE2EF0BF055
:1017640072EC0FF0E2EF0BF0C0C00AF0C1C00BF056
:1017740002D8C6EF0BF00500FA6EB451FD6EB551F8
:10178400FE6EFF6AFA5012000C6E0D6A0D50000ACC
:10179400D8B4CFEF0BF0B2EF0BF00C50010AD8B471
:1017A400B2EF0BF0030AD8B4A9EF0BF0010AD8B4D6
:1017B400A9EF0BF0070AD8B4ADEF0BF0B2EF0BF0C2
:1017C40012001E6E1A501B10D8B4EBEF0BF0EDEFA5
:1017D4000BF007EF0CF01E50020DB40EF324D96E7B
:1017E400000EF420DA6E1AC0DEFF1BC0DDFF1E50AF
:1017F400020DC00EF324D96E000EF420DA6E1CC064
:10180400DEFF1DC0DDFF1DEF0CF01E50020DB40EF7
:10181400F324D96E000EF420DA6E4A0EDE6E1F0E2B
:10182400DD6E1E50020DC00EF324D96E000EF4209E
:10183400DA6EDE6ADD6A1200056E01500210D8B459
:1018440026EF0CF028EF0CF042EF0CF00550020DDF
:10185400B40EF324D96E000EF420DA6E01C0DEFF5C
:1018640002C0DDFF0550020DC00EF324D96E000E38
:10187400F420DA6E03C0DEFF04C0DDFF58EF0CF085
:101884000550020DB40EF324D96E000EF420DA6E66
:101894004A0EDE6E1F0EDD6E0550020DC00EF324DF
:1018A400D96E000EF420DA6EDE6ADD6A1200246E50
:1018B400000E256E245017EC0BF00009D8B465EF28
:1018C4000CF067EF0CF05CEF0CF0F00E1F6E1C0ECA
:1018D400206E250E216E000E226ED9EC0EF0230E22
:1018E4001A6E000E1B6E000E1D6E010E1C6EA4EC13
:1018F4000EF0000E1F6E000E206E000E216E000E04
:10190400226EE5EC0EF062EC0FF036EC0EF0E80619
:10191400D8B48FEF0CF091EF0CF087EF0CF025505A
:1019240012009BEC0FF00001D7A19BEF0CF09DEF90
:101934000CF0AAEF0CF01DEC0FF00009D8B4A5EFE1
:101944000CF0A7EF0CF0AAEF0CF00F0E0001D56F0E
:101954000001D551020D010EF324F66E100EF42091
:10196400F76EF86A000EF8220900F5CF0EF00900B0
:10197400F5CF0FF002D8C8EF0CF00500FA6E0E5048
:10198400FD6E0F50FE6EFF6AFA5012000001D56F13
:1019940012000001D791020ED66FD9EF0CF076EC4D
:1019A4000FF0FDEF0CF072EC0FF0FDEF0CF0C4C083
:1019B4000AF0C5C00BF002D8E9EF0CF00500FA6E8E
:1019C400B851FD6EB951FE6EFF6AFA5012000C6EEA
:1019D4000D6A0D50000AD8B4F2EF0CF0D5EF0CF0FC
:1019E4000C50020AD8B4D1EF0CF0010AD8B4D1EFEC
:1019F4000CF0D5EF0CF0120088C08CF089C08DF08B
:101A040013EF0DF086C07AF087C07BF08C0E0001D6
:101A14007C6F000E7D6F8AC07EF08BC07FF022EC5D
:101A240008F08CC0F6FF8DC0F7FFF86A0800F55087
:101A34000009D8A420EF0DF022EF0DF004EF0DF013
:101A4400000E0001876F000E866F1200920E0001D7
:101A54009E6F000E9F6F8EC0A0F08FC0A1F0000E8D
:101A6400A46F000EA36F000EAB6F000EAA6FA00E42
:101A7400866F000E876F90C088F091C089F09E0E2B
:101A84008A6F000E8B6FFEEC0CF00001A3518E25C3
:101A9400D96EA4518F21DA6EDF6A1200000E296E0E
:101AA400000E286E61EF0DF027C01AF01B6A25C0E6
:101AB4001CF026C01DF052EC09F0284A292A2850AF
:101AC4002324D96E29502420DA6EDF50276E275044
:101AD400D8A46FEF0DF071EF0DF056EF0DF012007A
:101AE4001A6E010E1B6E0001D7B37BEF0DF07DEF74
:101AF4000DF090EF0DF0D783000E1B6E1A50D8B482
:101B040086EF0DF088EF0DF08CEF0DF0010ED56F20
:101B14008EEF0DF0020ED56F91EC0FF01B501200FA
:101B240020EE02F00A50D9260B50DA22DECF01F063
:101B3400DDCF02F00AC0D9FF0BC0DAFFDECF03F01D
:101B4400DDCF04F0B6EC0EF0000E066E000E076E4C
:101B5400000E086E000E096EF1EC0EF0020E12007B
:101B6400080EB86E900EAB6E240EAC6EA00EAF6E67
:101B7400010EB06E000E1A6E000E1B6E58EC0FF0C4
:101B8400000E1A6E000E1B6E53EC0FF0000E1A6E50
:101B9400000E1B6E5DEC0FF0000E3A6E1200000E8C
:101BA4001D6EDFEF0DF01D501B24D96E000E1C209E
:101BB400DA6EDF50FDEC0EF01D2A1D501B24D96E89
:101BC400000E1C20DA6EDF50D8A4EBEF0DF0EDEF21
:101BD4000DF0D5EF0DF0120008EC0FF0F28EF28C40
:101BE400680EC7EC0AF020EE3BF0060EEBCFDBFFED
:101BF400E806FCE23B0E0001AC6F000EAD6F19EC81
:101C04000AF003EF0EF062EF00F0000E8D6E000E8E
:101C14008C6E000E896E000E8A6E000E8B6E070E9F
:101C2400966E92689368BF0E946E95687E681F0ED8
:101C34007F6E000E7C6EF18E120001EE00F0320E0B
:101C4400EE6AE806FDE100EEB4F0450EEE6AE80641
:101C5400FDE100EE2DF0150EEE6AE806FDE146907A
:101C640046920001EEEF0DF0010E1A6E0001D7B39B
:101C74003EEF0EF040EF0EF04AEF0EF0D795D0692C
:101C840097EC0FF093EC0FF095EC0FF0D6C01AF030
:101C94001A5012000AC001F00BC002F0000E046ECC
:101CA400010E036EB6EC0EF0000E066E000E076E0B
:101CB400000E086E000E096EF1EC0EF0040E120018
:101CC4000AC001F00BC002F0000E046E020E036E97
:101CD400B6EC0EF0000E066E000E076E000E086ED7
:101CE400000E096EF1EC0EF0020E12000AC001F0B3
:101CF4000BC002F0000E046E010E036EB6EC0EF083
:101D0400000E066E000E076E000E086E000E096EC1
:101D1400F1EC0EF0020E12000AC001F00BC002F04A
:101D2400000E046E020E036EB6EC0EF0000E066E8C
:101D3400000E076E000E086E000E096EF1EC0EF038
:101D4400040E12000001D7A7AAEF0EF0ACEF0EF0BC
:101D5400B5EF0EF01AC0D1F01BC0D2F01CC0D3F006
:101D64001DC0D4F0D79712000001D7A7BCEF0EF026
:101D7400BEEF0EF0C7EF0EF001C0D1F002C0D2F0FA
:101D840003C0D3F004C0D4F0D7971200C6BACDEF85
:101D94000EF0CFEF0EF0D8EF0EF0800EC76E080EE7
:101DA400C66E000EC56E270EC86EC68A12001FC00E
:101DB4001AF020C01BF021C01CF022C01DF0000E40
:101DC400E3EC0BF012001FC01AF020C01BF021C07E
:101DD4001CF022C01DF0020EE3EC0BF0120006C052
:101DE40001F007C002F008C003F009C004F0000EBF
:101DF4001EEC0CF012001A6E9EA803EF0FF005EF14
:101E04000FF0FEEF0EF01AC0ADFF120099EC0FF0C8
:101E140013EC0FF007EC0EF04EEC0FF0B2EC0DF0FB
:101E24001200800EC76E080EC66E000EC56E270E19
:101E3400C86EC69A1200C5BC22EF0FF025EF0FF052
:101E4400010E26EF0FF0000E12000001D781D051D1
:101E5400D02582EC0FF0030E12000001D781D88048
:101E6400D03582EC0FF0050E12000001D793000E5E
:101E7400D66F0E0E12000001D791A1EC0FF0040EE4
:101E840012000001D793000ED66F0E0E12001AC076
:101E940038F01BC039F01200300ED36E000E9B6E6A
:101EA40012001AC042F01BC043F012001AC044F0E2
:101EB4001BC045F012001AC0F9F01BC0FAF0120062
:101EC400000E72EC0DF012008CEC0FF0090E1200F3
:101ED4008CEC0FF00A0E120089EC0FF0050E1200C4
:101EE400A7EC0FF0000E1200A9EC0FF0010E120087
:101EF400A9EC0FF0020E1200A9EC0FF0010E120073
:101F0400016E01C0C9FF120093EC0CF01200C59AD7
:101F1400C5881200C58AC58812009D861200C58036
:101F240012009D961200C69A12009E961200D09E30
:101F340012009E9612009E861200C9501200C58699
:101F44001200050E1200010E1200C5841200C58293
:041F54001200120065
:020000040020DA
:08000000FFFFFFFFFFFFFFFF00
:020000040030CA
:0E000000FF021F1EFF8B85FF0FC00FE00F4099
:00000001FF
