:0400000043EF00F0DA
:100008001A82FACF16F0FBCF17F0F2AC0EEF00F021
:1000180010EF00F03DEF00F0A0A615EF00F017EF8D
:1000280000F02DEF00F0A1A61CEF00F01EEF00F08D
:100038002DEF00F002D82BEF00F00500FA6E0B5000
:10004800FD6E0C50FE6EF850FF6EFA5012003DEF38
:1000580000F09DA632EF00F034EF00F03DEF00F025
:100068009EA639EF00F03BEF00F03DEF00F01EEFE9
:1000780000F017C0FBFF16C0FAFF1A9211007AEFC2
:1000880001F007EC02F0A5EC01F00009D8B44FEF3D
:1000980000F051EF00F063EF00F09BEC01F0000975
:1000A800D8B459EF00F05BEF00F05FEF00F0010EFD
:1000B8000D6EA3EF00F0020E0D6EA3EF00F09BECA7
:1000C80001F00009D8B46BEF00F06DEF00F071EFAC
:1000D80000F0030E0D6EA3EF00F0040E0D6EA3EFFB
:1000E80000F054EC01F087EC01F00009D8B47FEF80
:1000F80000F081EF00F0C0EF00F026EC01F0C0EF57
:1001080000F054EC01F0C0EF00F087EC01F00009BA
:10011800D8B491EF00F093EF00F0C0EF00F081EF5A
:1001280000F091EC01F00009D8B49DEF00F09FEFCA
:1001380000F0C0EF00F03DEC01F0C0EF00F00D5012
:10014800146E156A1550000AD8B4ADEF00F0C0EF70
:1001580000F01450010AD8B475EF00F0030AD8B4BF
:1001680085EF00F0010AD8B489EF00F0070AD8B487
:1001780095EF00F0C0EF00F005EC02F012006BEC18
:1001880001F0280ED4EC01F07F0ECFEC01F08A0EBE
:10019800186E000E196EDEEC01F0000E186E000EDF
:1001A800196EE3EC01F0DA0E186E030E196EC5EC49
:1001B80001F0EA0E186E030E196ED9EC01F0FA0E72
:1001C800186E030E196EE8EC01F0000E186E000EA2
:1001D800196ECAEC01F003EC02F01200AFEC01F06A
:1001E800C3EC00F0F20E186E030E196ED9EC01F094
:1001F800F28EF28C230E126404EF01F006EF01F088
:1002080009EF01F08B80FEEF00F08B90FEEF00F01D
:1002180043EF00F0000E8D6E000E8C6E000E896E9E
:10022800000E8A6E000E8B6E070E966E92689368AB
:10023800FE0E946E95687E681F0E7F6E000E7C6EB3
:10024800F18E120007500810D8B42DEF01F02FEFEF
:1002580001F03CEF01F002D83CEF01F00500FA6E26
:100268000750FD6E0850FE6EF850FF6EFA501200EF
:10027800120009500A10D8B444EF01F046EF01F01B
:1002880053EF01F002D853EF01F00500FA6E095060
:10029800FD6E0A50FE6EF850FF6EFA501200120002
:1002A80005500610D8B45BEF01F05DEF01F06AEF7E
:1002B80001F002D86AEF01F00500FA6E0550FD6EF4
:1002C8000650FE6EF850FF6EFA5012001200C6BAC1
:1002D80070EF01F072EF01F079EF01F0800EC76E58
:1002E800060EC612000EC56EC68A120000EE01F098
:1002F800120EEE6AE806FDE11A901A92000EF86EE8
:100308000001F2EF00F0C7A08CEF01F08FEF01F0D1
:10031800010E90EF01F0000E1200C7B096EF01F049
:1003280099EF01F0010E9AEF01F0000E1200C7B428
:10033800A0EF01F0A3EF01F0010EA4EF01F0000E11
:100348001200C7AAAAEF01F0ADEF01F0010EAEEF5F
:1003580001F0000E120001EC02F0B8EC01F00EEC16
:1003680001F0C0EC01F01200800EC76E060EC61236
:10037800000EC56EC69A1200300ED36E000E9B6E2C
:10038800120018C007F019C008F0120018C001F0D8
:1003980019C002F01200186E18501824776E120057
:1003A800186E18501824C86E120018C009F019C029
:1003B8000AF0120018C00BF019C00CF0120018C097
:1003C80003F019C004F0120018C005F019C006F0B7
:1003D80012001050F1EC01F01200136E13C0C9FFA7
:1003E800120009EC02F00F6E1200112AC9CF12F0A8
:1003F800120009EC02F00E6E1200D09E12009D86CB
:0E0408001200C68812009E961200C950120003
:020000040020DA
:08000000FFFFFFFFFFFFFFFF00
:020000040030CA
:0E000000FF021F1EFF8B85FF0FC00FE00F4099
:00000001FF
